{
  "contractName": "Market",
  "abi": [
    {
      "inputs": [],
      "stateMutability": "nonpayable",
      "type": "constructor"
    },
    {
      "anonymous": false,
      "inputs": [
        {
          "indexed": true,
          "internalType": "uint256",
          "name": "itemId",
          "type": "uint256"
        },
        {
          "indexed": true,
          "internalType": "address",
          "name": "nftContract",
          "type": "address"
        },
        {
          "indexed": true,
          "internalType": "uint256",
          "name": "tokenId",
          "type": "uint256"
        },
        {
          "indexed": false,
          "internalType": "address",
          "name": "seller",
          "type": "address"
        },
        {
          "indexed": false,
          "internalType": "address",
          "name": "owner",
          "type": "address"
        },
        {
          "indexed": false,
          "internalType": "uint256",
          "name": "price",
          "type": "uint256"
        },
        {
          "indexed": false,
          "internalType": "bool",
          "name": "sold",
          "type": "bool"
        }
      ],
      "name": "MarketItemCreated",
      "type": "event"
    },
    {
      "inputs": [],
      "name": "getListingPrice",
      "outputs": [
        {
          "internalType": "uint256",
          "name": "",
          "type": "uint256"
        }
      ],
      "stateMutability": "view",
      "type": "function",
      "constant": true
    },
    {
      "inputs": [
        {
          "internalType": "address",
          "name": "nftContract",
          "type": "address"
        },
        {
          "internalType": "uint256",
          "name": "tokenId",
          "type": "uint256"
        },
        {
          "internalType": "uint256",
          "name": "price",
          "type": "uint256"
        }
      ],
      "name": "createMarketItem",
      "outputs": [],
      "stateMutability": "payable",
      "type": "function",
      "payable": true
    },
    {
      "inputs": [
        {
          "internalType": "address",
          "name": "nftContract",
          "type": "address"
        },
        {
          "internalType": "uint256",
          "name": "itemId",
          "type": "uint256"
        }
      ],
      "name": "createMarketSale",
      "outputs": [],
      "stateMutability": "payable",
      "type": "function",
      "payable": true
    },
    {
      "inputs": [],
      "name": "fetchMarketItems",
      "outputs": [
        {
          "components": [
            {
              "internalType": "uint256",
              "name": "itemId",
              "type": "uint256"
            },
            {
              "internalType": "address",
              "name": "nftContract",
              "type": "address"
            },
            {
              "internalType": "uint256",
              "name": "tokenId",
              "type": "uint256"
            },
            {
              "internalType": "address payable",
              "name": "seller",
              "type": "address"
            },
            {
              "internalType": "address payable",
              "name": "owner",
              "type": "address"
            },
            {
              "internalType": "uint256",
              "name": "price",
              "type": "uint256"
            },
            {
              "internalType": "bool",
              "name": "sold",
              "type": "bool"
            }
          ],
          "internalType": "struct Market.MarketItem[]",
          "name": "",
          "type": "tuple[]"
        }
      ],
      "stateMutability": "view",
      "type": "function",
      "constant": true
    },
    {
      "inputs": [],
      "name": "fetchMyNFTS",
      "outputs": [
        {
          "components": [
            {
              "internalType": "uint256",
              "name": "itemId",
              "type": "uint256"
            },
            {
              "internalType": "address",
              "name": "nftContract",
              "type": "address"
            },
            {
              "internalType": "uint256",
              "name": "tokenId",
              "type": "uint256"
            },
            {
              "internalType": "address payable",
              "name": "seller",
              "type": "address"
            },
            {
              "internalType": "address payable",
              "name": "owner",
              "type": "address"
            },
            {
              "internalType": "uint256",
              "name": "price",
              "type": "uint256"
            },
            {
              "internalType": "bool",
              "name": "sold",
              "type": "bool"
            }
          ],
          "internalType": "struct Market.MarketItem[]",
          "name": "",
          "type": "tuple[]"
        }
      ],
      "stateMutability": "view",
      "type": "function",
      "constant": true
    },
    {
      "inputs": [],
      "name": "fetchNFTSCreated",
      "outputs": [
        {
          "components": [
            {
              "internalType": "uint256",
              "name": "itemId",
              "type": "uint256"
            },
            {
              "internalType": "address",
              "name": "nftContract",
              "type": "address"
            },
            {
              "internalType": "uint256",
              "name": "tokenId",
              "type": "uint256"
            },
            {
              "internalType": "address payable",
              "name": "seller",
              "type": "address"
            },
            {
              "internalType": "address payable",
              "name": "owner",
              "type": "address"
            },
            {
              "internalType": "uint256",
              "name": "price",
              "type": "uint256"
            },
            {
              "internalType": "bool",
              "name": "sold",
              "type": "bool"
            }
          ],
          "internalType": "struct Market.MarketItem[]",
          "name": "",
          "type": "tuple[]"
        }
      ],
      "stateMutability": "view",
      "type": "function",
      "constant": true
    }
  ],
  "bytecode": "0x60806040526658d15e1762800060045534801561001b57600080fd5b50600160008190555033600360006101000a81548173ffffffffffffffffffffffffffffffffffffffff021916908373ffffffffffffffffffffffffffffffffffffffff1602179055506118ba806100746000396000f3fe6080604052600436106100555760003560e01c80630f08efe01461005a57806312e855851461008557806358eb2df5146100b05780637dc5dfcf146100cc578063b678f0b7146100f7578063c23b139e14610122575b600080fd5b34801561006657600080fd5b5061006f61013e565b60405161007c9190611341565b60405180910390f35b34801561009157600080fd5b5061009a610408565b6040516100a79190611372565b60405180910390f35b6100ca60048036038101906100c591906113ea565b610412565b005b3480156100d857600080fd5b506100e161077e565b6040516100ee9190611341565b60405180910390f35b34801561010357600080fd5b5061010c610acc565b6040516101199190611341565b60405180910390f35b61013c6004803603810190610137919061143d565b610e1a565b005b6060600061014c60016110c9565b9050600061015a60026110c9565b61016460016110c9565b61016e91906114ac565b90506000808267ffffffffffffffff81111561018d5761018c6114e0565b5b6040519080825280602002602001820160405280156101c657816020015b6101b36110ed565b8152602001906001900390816101ab5790505b50905060005b848110156103fd57600073ffffffffffffffffffffffffffffffffffffffff16600560006001846101fd919061150f565b815260200190815260200160002060040160009054906101000a900473ffffffffffffffffffffffffffffffffffffffff1673ffffffffffffffffffffffffffffffffffffffff1614156103ea57600060018261025a919061150f565b90506000600560008381526020019081526020016000209050806040518060e0016040529081600082015481526020016001820160009054906101000a900473ffffffffffffffffffffffffffffffffffffffff1673ffffffffffffffffffffffffffffffffffffffff1673ffffffffffffffffffffffffffffffffffffffff168152602001600282015481526020016003820160009054906101000a900473ffffffffffffffffffffffffffffffffffffffff1673ffffffffffffffffffffffffffffffffffffffff1673ffffffffffffffffffffffffffffffffffffffff1681526020016004820160009054906101000a900473ffffffffffffffffffffffffffffffffffffffff1673ffffffffffffffffffffffffffffffffffffffff1673ffffffffffffffffffffffffffffffffffffffff168152602001600582015481526020016006820160009054906101000a900460ff1615151515815250508486815181106103cd576103cc611565565b5b60200260200101819052506001856103e5919061150f565b945050505b80806103f590611594565b9150506101cc565b508094505050505090565b6000600454905090565b60026000541415610458576040517f08c379a000000000000000000000000000000000000000000000000000000000815260040161044f9061163a565b60405180910390fd5b6002600081905550670de0b6b3a76400008110156104ab576040517f08c379a00000000000000000000000000000000000000000000000000000000081526004016104a2906116a6565b60405180910390fd5b60045434146104ef576040517f08c379a00000000000000000000000000000000000000000000000000000000081526004016104e690611738565b60405180910390fd5b6104f960016110d7565b600061050560016110c9565b90506040518060e001604052808281526020018573ffffffffffffffffffffffffffffffffffffffff1681526020018481526020013373ffffffffffffffffffffffffffffffffffffffff168152602001600073ffffffffffffffffffffffffffffffffffffffff16815260200183815260200160001515815250600560008381526020019081526020016000206000820151816000015560208201518160010160006101000a81548173ffffffffffffffffffffffffffffffffffffffff021916908373ffffffffffffffffffffffffffffffffffffffff1602179055506040820151816002015560608201518160030160006101000a81548173ffffffffffffffffffffffffffffffffffffffff021916908373ffffffffffffffffffffffffffffffffffffffff16021790555060808201518160040160006101000a81548173ffffffffffffffffffffffffffffffffffffffff021916908373ffffffffffffffffffffffffffffffffffffffff16021790555060a0820151816005015560c08201518160060160006101000a81548160ff0219169083151502179055509050508373ffffffffffffffffffffffffffffffffffffffff166323b872dd3330866040518463ffffffff1660e01b81526004016106e693929190611767565b600060405180830381600087803b15801561070057600080fd5b505af1158015610714573d6000803e3d6000fd5b50505050828473ffffffffffffffffffffffffffffffffffffffff16827f045dfa01dcba2b36aba1d3dc4a874f4b0c5d2fbeb8d2c4b34a7d88c8d8f929d133600087600060405161076894939291906117ad565b60405180910390a4506001600081905550505050565b6060600061078c60016110c9565b905060008060005b83811015610835573373ffffffffffffffffffffffffffffffffffffffff16600560006001846107c4919061150f565b815260200190815260200160002060040160009054906101000a900473ffffffffffffffffffffffffffffffffffffffff1673ffffffffffffffffffffffffffffffffffffffff1614156108225760018361081f919061150f565b92505b808061082d90611594565b915050610794565b5060008267ffffffffffffffff811115610852576108516114e0565b5b60405190808252806020026020018201604052801561088b57816020015b6108786110ed565b8152602001906001900390816108705790505b50905060005b84811015610ac1573373ffffffffffffffffffffffffffffffffffffffff16600560006001846108c1919061150f565b815260200190815260200160002060040160009054906101000a900473ffffffffffffffffffffffffffffffffffffffff1673ffffffffffffffffffffffffffffffffffffffff161415610aae57600060018261091e919061150f565b90506000600560008381526020019081526020016000209050806040518060e0016040529081600082015481526020016001820160009054906101000a900473ffffffffffffffffffffffffffffffffffffffff1673ffffffffffffffffffffffffffffffffffffffff1673ffffffffffffffffffffffffffffffffffffffff168152602001600282015481526020016003820160009054906101000a900473ffffffffffffffffffffffffffffffffffffffff1673ffffffffffffffffffffffffffffffffffffffff1673ffffffffffffffffffffffffffffffffffffffff1681526020016004820160009054906101000a900473ffffffffffffffffffffffffffffffffffffffff1673ffffffffffffffffffffffffffffffffffffffff1673ffffffffffffffffffffffffffffffffffffffff168152602001600582015481526020016006820160009054906101000a900460ff161515151581525050848681518110610a9157610a90611565565b5b6020026020010181905250600185610aa9919061150f565b945050505b8080610ab990611594565b915050610891565b508094505050505090565b60606000610ada60016110c9565b905060008060005b83811015610b83573373ffffffffffffffffffffffffffffffffffffffff1660056000600184610b12919061150f565b815260200190815260200160002060030160009054906101000a900473ffffffffffffffffffffffffffffffffffffffff1673ffffffffffffffffffffffffffffffffffffffff161415610b7057600183610b6d919061150f565b92505b8080610b7b90611594565b915050610ae2565b5060008267ffffffffffffffff811115610ba057610b9f6114e0565b5b604051908082528060200260200182016040528015610bd957816020015b610bc66110ed565b815260200190600190039081610bbe5790505b50905060005b84811015610e0f573373ffffffffffffffffffffffffffffffffffffffff1660056000600184610c0f919061150f565b815260200190815260200160002060030160009054906101000a900473ffffffffffffffffffffffffffffffffffffffff1673ffffffffffffffffffffffffffffffffffffffff161415610dfc576000600182610c6c919061150f565b90506000600560008381526020019081526020016000209050806040518060e0016040529081600082015481526020016001820160009054906101000a900473ffffffffffffffffffffffffffffffffffffffff1673ffffffffffffffffffffffffffffffffffffffff1673ffffffffffffffffffffffffffffffffffffffff168152602001600282015481526020016003820160009054906101000a900473ffffffffffffffffffffffffffffffffffffffff1673ffffffffffffffffffffffffffffffffffffffff1673ffffffffffffffffffffffffffffffffffffffff1681526020016004820160009054906101000a900473ffffffffffffffffffffffffffffffffffffffff1673ffffffffffffffffffffffffffffffffffffffff1673ffffffffffffffffffffffffffffffffffffffff168152602001600582015481526020016006820160009054906101000a900460ff161515151581525050848681518110610ddf57610dde611565565b5b6020026020010181905250600185610df7919061150f565b945050505b8080610e0790611594565b915050610bdf565b508094505050505090565b60026000541415610e60576040517f08c379a0000000000000000000000000000000000000000000000000000000008152600401610e579061163a565b60405180910390fd5b6002600081905550600060056000838152602001908152602001600020600501549050600060056000848152602001908152602001600020600201549050813414610ee0576040517f08c379a0000000000000000000000000000000000000000000000000000000008152600401610ed790611864565b60405180910390fd5b6005600084815260200190815260200160002060030160009054906101000a900473ffffffffffffffffffffffffffffffffffffffff1673ffffffffffffffffffffffffffffffffffffffff166108fc349081150290604051600060405180830381858888f19350505050158015610f5c573d6000803e3d6000fd5b508373ffffffffffffffffffffffffffffffffffffffff166323b872dd3033846040518463ffffffff1660e01b8152600401610f9a93929190611767565b600060405180830381600087803b158015610fb457600080fd5b505af1158015610fc8573d6000803e3d6000fd5b50505050336005600085815260200190815260200160002060040160006101000a81548173ffffffffffffffffffffffffffffffffffffffff021916908373ffffffffffffffffffffffffffffffffffffffff16021790555060016005600085815260200190815260200160002060060160006101000a81548160ff021916908315150217905550600360009054906101000a900473ffffffffffffffffffffffffffffffffffffffff1673ffffffffffffffffffffffffffffffffffffffff166108fc6004549081150290604051600060405180830381858888f193505050501580156110ba573d6000803e3d6000fd5b50505060016000819055505050565b600081600001549050919050565b6001816000016000828254019250508190555050565b6040518060e0016040528060008152602001600073ffffffffffffffffffffffffffffffffffffffff16815260200160008152602001600073ffffffffffffffffffffffffffffffffffffffff168152602001600073ffffffffffffffffffffffffffffffffffffffff168152602001600081526020016000151581525090565b600081519050919050565b600082825260208201905092915050565b6000819050602082019050919050565b6000819050919050565b6111ad8161119a565b82525050565b600073ffffffffffffffffffffffffffffffffffffffff82169050919050565b60006111de826111b3565b9050919050565b6111ee816111d3565b82525050565b60006111ff826111b3565b9050919050565b61120f816111f4565b82525050565b60008115159050919050565b61122a81611215565b82525050565b60e08201600082015161124660008501826111a4565b50602082015161125960208501826111e5565b50604082015161126c60408501826111a4565b50606082015161127f6060850182611206565b5060808201516112926080850182611206565b5060a08201516112a560a08501826111a4565b5060c08201516112b860c0850182611221565b50505050565b60006112ca8383611230565b60e08301905092915050565b6000602082019050919050565b60006112ee8261116e565b6112f88185611179565b93506113038361118a565b8060005b8381101561133457815161131b88826112be565b9750611326836112d6565b925050600181019050611307565b5085935050505092915050565b6000602082019050818103600083015261135b81846112e3565b905092915050565b61136c8161119a565b82525050565b60006020820190506113876000830184611363565b92915050565b600080fd5b61139b816111d3565b81146113a657600080fd5b50565b6000813590506113b881611392565b92915050565b6113c78161119a565b81146113d257600080fd5b50565b6000813590506113e4816113be565b92915050565b6000806000606084860312156114035761140261138d565b5b6000611411868287016113a9565b9350506020611422868287016113d5565b9250506040611433868287016113d5565b9150509250925092565b600080604083850312156114545761145361138d565b5b6000611462858286016113a9565b9250506020611473858286016113d5565b9150509250929050565b7f4e487b7100000000000000000000000000000000000000000000000000000000600052601160045260246000fd5b60006114b78261119a565b91506114c28361119a565b9250828210156114d5576114d461147d565b5b828203905092915050565b7f4e487b7100000000000000000000000000000000000000000000000000000000600052604160045260246000fd5b600061151a8261119a565b91506115258361119a565b9250827fffffffffffffffffffffffffffffffffffffffffffffffffffffffffffffffff0382111561155a5761155961147d565b5b828201905092915050565b7f4e487b7100000000000000000000000000000000000000000000000000000000600052603260045260246000fd5b600061159f8261119a565b91507fffffffffffffffffffffffffffffffffffffffffffffffffffffffffffffffff8214156115d2576115d161147d565b5b600182019050919050565b600082825260208201905092915050565b7f5265656e7472616e637947756172643a207265656e7472616e742063616c6c00600082015250565b6000611624601f836115dd565b915061162f826115ee565b602082019050919050565b6000602082019050818103600083015261165381611617565b9050919050565b7f5072696365206d7573742062652061746c656173742031204554480000000000600082015250565b6000611690601b836115dd565b915061169b8261165a565b602082019050919050565b600060208201905081810360008301526116bf81611683565b9050919050565b7f506c656173652070726f76696465206c697374696e672070726963652076616c60008201527f7565000000000000000000000000000000000000000000000000000000000000602082015250565b60006117226022836115dd565b915061172d826116c6565b604082019050919050565b6000602082019050818103600083015261175181611715565b9050919050565b611761816111d3565b82525050565b600060608201905061177c6000830186611758565b6117896020830185611758565b6117966040830184611363565b949350505050565b6117a781611215565b82525050565b60006080820190506117c26000830187611758565b6117cf6020830186611758565b6117dc6040830185611363565b6117e9606083018461179e565b95945050505050565b7f506c656173652070726f76696465207468652061736b656420666f722070726960008201527f636520666f7220746865204e4654000000000000000000000000000000000000602082015250565b600061184e602e836115dd565b9150611859826117f2565b604082019050919050565b6000602082019050818103600083015261187d81611841565b905091905056fea264697066735822122099145f13515ce9d9f81e22387a2bf8b4b751bf5a765b2cd33f2fae3687e92cb164736f6c634300080a0033",
  "immutableReferences": {},
  "source": "// SPDX-License-Identifier: MIT\r\npragma solidity 0.8.10;\r\n\r\n// Open source contracts which follow the ERC721 NFT standard\r\nimport \"@openzeppelin/contracts/utils/Counters.sol\";\r\nimport \"@openzeppelin/contracts/security/ReentrancyGuard.sol\";\r\nimport \"@openzeppelin/contracts/token/ERC721/ERC721.sol\";\r\n\r\ncontract Market is ReentrancyGuard {\r\n    using Counters for Counters.Counter;\r\n    Counters.Counter private _itemIds;\r\n    Counters.Counter private _itemsSold;\r\n\r\n    address payable owner;\r\n    uint256 listingPrice = 0.025 ether;\r\n\r\n    constructor () {\r\n        // Marketplace owner\r\n        owner = payable(msg.sender);\r\n    }\r\n\r\n    struct MarketItem {\r\n        uint itemId;\r\n        address nftContract;\r\n        uint256 tokenId;\r\n        address payable seller;\r\n        address payable owner;\r\n        uint256 price;\r\n        bool sold;\r\n    }\r\n\r\n    mapping(uint256 => MarketItem) private idToMarketItem;\r\n\r\n      event MarketItemCreated (\r\n        uint indexed itemId,\r\n        address indexed nftContract,\r\n        uint256 indexed tokenId,\r\n        address seller,\r\n        address owner,\r\n        uint256 price,\r\n        bool sold\r\n    );\r\n\r\n    // Returns the listing price\r\n    function getListingPrice() public view returns(uint256) {\r\n        return listingPrice;\r\n    }\r\n\r\n    // Place an NFT for sale on marketplace\r\n    function createMarketItem(\r\n        address nftContract,\r\n        uint256 tokenId,\r\n        uint256 price \r\n    ) public payable nonReentrant {\r\n        require(price >= 1 ether, 'Price must be atleast 1 ETH');\r\n        require(msg.value == listingPrice, 'Please provide listing price value');\r\n        // Create an ID for the NFT\r\n        _itemIds.increment();\r\n        uint itemId = _itemIds.current();\r\n        // Map the NFT to marketplace items\r\n        idToMarketItem[itemId] = MarketItem(\r\n            itemId,\r\n            nftContract,\r\n            tokenId,\r\n            payable(msg.sender), // Creator is the seller\r\n            payable(address(0)), // NFT not sold to anybody yet\r\n            price,\r\n            false\r\n        );\r\n        // Transfer NFT contract from seller to marketplace\r\n        IERC721(nftContract).transferFrom(msg.sender, address(this), tokenId);\r\n\r\n        emit MarketItemCreated(\r\n            itemId,\r\n            nftContract,\r\n            tokenId,\r\n            msg.sender,\r\n            address(0),\r\n            price,\r\n            false\r\n        );\r\n    }\r\n\r\n    // Create a sale\r\n    function createMarketSale(address nftContract, uint256 itemId) public payable nonReentrant {\r\n        uint price = idToMarketItem[itemId].price;\r\n        uint tokenId = idToMarketItem[itemId].tokenId;\r\n\r\n        require(msg.value == price, \"Please provide the asked for price for the NFT\");\r\n        // Pay the seller the amount received for the NFT\r\n        idToMarketItem[itemId].seller.transfer(msg.value);\r\n        // Transfer NFT contract from marketplace to buyer\r\n        IERC721(nftContract).transferFrom(address(this), msg.sender, tokenId);\r\n        // Update the owner of the NFT\r\n        idToMarketItem[itemId].owner = payable(msg.sender);\r\n        idToMarketItem[itemId].sold = true;\r\n        // Transfer the marketplace owner the listing fee once the sale is made\r\n        payable(owner).transfer(listingPrice);\r\n    }\r\n\r\n    // Fetches the items which are currently for sale on marketplace\r\n    function fetchMarketItems() public view returns (MarketItem[] memory) {\r\n        // Calculate the number of items that have not been sold\r\n        uint totalItemsCount = _itemIds.current();\r\n        uint unsoldItemsCount = _itemIds.current() - _itemsSold.current();\r\n        uint currentIndex = 0;\r\n        // Create a new array to hold the unsold items\r\n        MarketItem[] memory unsoldItems = new MarketItem[](unsoldItemsCount);\r\n        for (uint256 i = 0; i < totalItemsCount; i++) {\r\n            // If a market item does not have an owner (i.e. is not sold), then push to unsoldItems array\r\n            if(idToMarketItem[i+1].owner == address(0)) {\r\n                uint currentId = i+1;\r\n                MarketItem storage currentItem = idToMarketItem[currentId];\r\n                unsoldItems[currentIndex] = currentItem;\r\n                currentIndex+=1;\r\n            }\r\n        }\r\n        return unsoldItems;\r\n    }\r\n\r\n    // Returns the NFTs purchased by the user\r\n    function fetchMyNFTS() public view returns (MarketItem[] memory) {\r\n        // Calculate the number of items that have not been sold\r\n        uint totalItemsCount = _itemIds.current();\r\n        uint itemsCount = 0;\r\n        uint currentIndex = 0;\r\n        // Count the number of items owned by creator\r\n        for (uint256 i = 0; i < totalItemsCount; i++) {\r\n            if(idToMarketItem[i+1].owner == msg.sender) {\r\n                itemsCount += 1;\r\n            }\r\n        }\r\n        // Create a new array to hold the owned items\r\n        MarketItem[] memory myNFTs = new MarketItem[](itemsCount);\r\n        for (uint256 i = 0; i < totalItemsCount; i++) {\r\n            // If msg.sender is the owner of the NFT, then push to myNFTs array\r\n            if(idToMarketItem[i+1].owner == msg.sender) {\r\n                uint currentId = i+1;\r\n                MarketItem storage currentItem = idToMarketItem[currentId];\r\n                myNFTs[currentIndex] = currentItem;\r\n                currentIndex+=1;\r\n            }\r\n        }\r\n        return myNFTs;\r\n    }\r\n    \r\n    // Returns the NFTs created by the user\r\n    function fetchNFTSCreated() public view returns (MarketItem[] memory) {\r\n        // Calculate the number of items that have not been sold\r\n        uint totalItemsCount = _itemIds.current();\r\n        uint itemsCount = 0;\r\n        uint currentIndex = 0;\r\n        // Count the number of items on sale by creator\r\n        for (uint256 i = 0; i < totalItemsCount; i++) {\r\n            if(idToMarketItem[i+1].seller == msg.sender) {\r\n                itemsCount += 1;\r\n            }\r\n        }\r\n        // Create a new array to hold the unsold items\r\n        MarketItem[] memory myNFTs = new MarketItem[](itemsCount);\r\n        for (uint256 i = 0; i < totalItemsCount; i++) {\r\n            // If a market item have seller as msg.sender, then push to myNFTs array\r\n            if(idToMarketItem[i+1].seller == msg.sender) {\r\n                uint currentId = i+1;\r\n                MarketItem storage currentItem = idToMarketItem[currentId];\r\n                myNFTs[currentIndex] = currentItem;\r\n                currentIndex+=1;\r\n            }\r\n        }\r\n        return myNFTs;\r\n    }\r\n}",
  "sourcePath": "E:\\Projects\\blockchain\\nft-marketplace\\contracts\\Market.sol",
  "compiler": {
    "name": "solc",
    "version": "0.8.10+commit.fc410830.Emscripten.clang"
  },
  "schemaVersion": "3.4.3",
  "updatedAt": "2021-12-05T12:32:55.529Z",
  "networkType": "ethereum",
  "devdoc": {
    "kind": "dev",
    "methods": {},
    "version": 1
  },
  "userdoc": {
    "kind": "user",
    "methods": {},
    "version": 1
  }
}